{
  "contractName": "EMRContract",
  "abi": [
    {
      "inputs": [],
      "payable": false,
      "stateMutability": "nonpayable",
      "type": "constructor"
    },
    {
      "anonymous": false,
      "inputs": [
        {
          "indexed": true,
          "internalType": "uint256",
          "name": "index",
          "type": "uint256"
        },
        {
          "indexed": false,
          "internalType": "address",
          "name": "sender",
          "type": "address"
        }
      ],
      "name": "eAppointmentAdd",
      "type": "event"
    },
    {
      "anonymous": false,
      "inputs": [
        {
          "indexed": true,
          "internalType": "uint256",
          "name": "index",
          "type": "uint256"
        },
        {
          "indexed": false,
          "internalType": "address",
          "name": "sender",
          "type": "address"
        }
      ],
      "name": "eAppointmentUpdate",
      "type": "event"
    },
    {
      "constant": true,
      "inputs": [],
      "name": "AppointmentIndex",
      "outputs": [
        {
          "internalType": "uint256",
          "name": "",
          "type": "uint256"
        }
      ],
      "payable": false,
      "stateMutability": "view",
      "type": "function"
    },
    {
      "constant": true,
      "inputs": [],
      "name": "MedicalReportIndex",
      "outputs": [
        {
          "internalType": "uint256",
          "name": "",
          "type": "uint256"
        }
      ],
      "payable": false,
      "stateMutability": "view",
      "type": "function"
    },
    {
      "constant": true,
      "inputs": [
        {
          "internalType": "address",
          "name": "",
          "type": "address"
        }
      ],
      "name": "administrator",
      "outputs": [
        {
          "internalType": "bool",
          "name": "",
          "type": "bool"
        }
      ],
      "payable": false,
      "stateMutability": "view",
      "type": "function"
    },
    {
      "constant": true,
      "inputs": [
        {
          "internalType": "uint256",
          "name": "",
          "type": "uint256"
        }
      ],
      "name": "appointments",
      "outputs": [
        {
          "internalType": "uint256",
          "name": "index",
          "type": "uint256"
        },
        {
          "internalType": "address",
          "name": "patient",
          "type": "address"
        },
        {
          "internalType": "uint256",
          "name": "datetime",
          "type": "uint256"
        },
        {
          "internalType": "enum EMRContract.AppointmentStat",
          "name": "stat",
          "type": "uint8"
        },
        {
          "internalType": "string",
          "name": "remark",
          "type": "string"
        }
      ],
      "payable": false,
      "stateMutability": "view",
      "type": "function"
    },
    {
      "constant": true,
      "inputs": [
        {
          "internalType": "uint256",
          "name": "",
          "type": "uint256"
        }
      ],
      "name": "medicalreports",
      "outputs": [
        {
          "internalType": "string",
          "name": "docname",
          "type": "string"
        },
        {
          "internalType": "string",
          "name": "docpath",
          "type": "string"
        },
        {
          "internalType": "string",
          "name": "docdesp",
          "type": "string"
        },
        {
          "internalType": "bool",
          "name": "isActive",
          "type": "bool"
        },
        {
          "internalType": "uint256",
          "name": "index",
          "type": "uint256"
        }
      ],
      "payable": false,
      "stateMutability": "view",
      "type": "function"
    },
    {
      "constant": true,
      "inputs": [],
      "name": "owner",
      "outputs": [
        {
          "internalType": "address",
          "name": "",
          "type": "address"
        }
      ],
      "payable": false,
      "stateMutability": "view",
      "type": "function"
    },
    {
      "constant": true,
      "inputs": [
        {
          "internalType": "address",
          "name": "",
          "type": "address"
        }
      ],
      "name": "patients",
      "outputs": [
        {
          "internalType": "address",
          "name": "client",
          "type": "address"
        },
        {
          "internalType": "string",
          "name": "fullname",
          "type": "string"
        },
        {
          "internalType": "string",
          "name": "dob",
          "type": "string"
        },
        {
          "internalType": "enum EMRContract.SexType",
          "name": "sex",
          "type": "uint8"
        },
        {
          "internalType": "enum EMRContract.MaritalType",
          "name": "marital",
          "type": "uint8"
        },
        {
          "internalType": "string",
          "name": "email",
          "type": "string"
        }
      ],
      "payable": false,
      "stateMutability": "view",
      "type": "function"
    },
    {
      "constant": true,
      "inputs": [],
      "name": "version",
      "outputs": [
        {
          "internalType": "string",
          "name": "",
          "type": "string"
        }
      ],
      "payable": false,
      "stateMutability": "view",
      "type": "function"
    },
    {
      "constant": false,
      "inputs": [
        {
          "internalType": "string",
          "name": "_version",
          "type": "string"
        }
      ],
      "name": "UpdateVersion",
      "outputs": [],
      "payable": false,
      "stateMutability": "nonpayable",
      "type": "function"
    },
    {
      "constant": false,
      "inputs": [
        {
          "internalType": "address",
          "name": "_admin",
          "type": "address"
        }
      ],
      "name": "SetAdministrator",
      "outputs": [],
      "payable": false,
      "stateMutability": "nonpayable",
      "type": "function"
    },
    {
      "constant": false,
      "inputs": [
        {
          "internalType": "string",
          "name": "_fullname",
          "type": "string"
        },
        {
          "internalType": "string",
          "name": "_dob",
          "type": "string"
        },
        {
          "internalType": "enum EMRContract.SexType",
          "name": "_sex",
          "type": "uint8"
        },
        {
          "internalType": "enum EMRContract.MaritalType",
          "name": "_marital",
          "type": "uint8"
        },
        {
          "internalType": "string",
          "name": "_email",
          "type": "string"
        },
        {
          "internalType": "uint256[]",
          "name": "_medicalreport",
          "type": "uint256[]"
        }
      ],
      "name": "SignupPatient",
      "outputs": [],
      "payable": false,
      "stateMutability": "nonpayable",
      "type": "function"
    },
    {
      "constant": false,
      "inputs": [
        {
          "internalType": "string",
          "name": "_fullname",
          "type": "string"
        },
        {
          "internalType": "string",
          "name": "_dob",
          "type": "string"
        },
        {
          "internalType": "enum EMRContract.SexType",
          "name": "_sex",
          "type": "uint8"
        },
        {
          "internalType": "enum EMRContract.MaritalType",
          "name": "_marital",
          "type": "uint8"
        },
        {
          "internalType": "string",
          "name": "_email",
          "type": "string"
        }
      ],
      "name": "PatientUpdate",
      "outputs": [],
      "payable": false,
      "stateMutability": "nonpayable",
      "type": "function"
    },
    {
      "constant": false,
      "inputs": [
        {
          "internalType": "uint256",
          "name": "_datetime",
          "type": "uint256"
        },
        {
          "internalType": "enum EMRContract.AppointmentStat",
          "name": "_stat",
          "type": "uint8"
        },
        {
          "internalType": "string",
          "name": "_remark",
          "type": "string"
        }
      ],
      "name": "AppointmentAdd",
      "outputs": [],
      "payable": false,
      "stateMutability": "nonpayable",
      "type": "function"
    },
    {
      "constant": false,
      "inputs": [
        {
          "internalType": "uint256",
          "name": "_AppointmentIndex",
          "type": "uint256"
        },
        {
          "internalType": "enum EMRContract.AppointmentStat",
          "name": "_stat",
          "type": "uint8"
        },
        {
          "internalType": "string",
          "name": "_remark",
          "type": "string"
        }
      ],
      "name": "AppointmentUpdate",
      "outputs": [],
      "payable": false,
      "stateMutability": "nonpayable",
      "type": "function"
    },
    {
      "constant": true,
      "inputs": [],
      "name": "AppointmentGet",
      "outputs": [
        {
          "internalType": "uint256[]",
          "name": "",
          "type": "uint256[]"
        }
      ],
      "payable": false,
      "stateMutability": "view",
      "type": "function"
    },
    {
      "constant": false,
      "inputs": [
        {
          "internalType": "address payable",
          "name": "_receiver",
          "type": "address"
        }
      ],
      "name": "payment",
      "outputs": [],
      "payable": true,
      "stateMutability": "payable",
      "type": "function"
    },
    {
      "constant": false,
      "inputs": [
        {
          "internalType": "string",
          "name": "_docname",
          "type": "string"
        },
        {
          "internalType": "string",
          "name": "_docpath",
          "type": "string"
        },
        {
          "internalType": "string",
          "name": "_docdesp",
          "type": "string"
        }
      ],
      "name": "MedicalReportAdd",
      "outputs": [],
      "payable": false,
      "stateMutability": "nonpayable",
      "type": "function"
    },
    {
      "constant": true,
      "inputs": [
        {
          "internalType": "address",
          "name": "_addr",
          "type": "address"
        }
      ],
      "name": "MedicalReportGet",
      "outputs": [
        {
          "internalType": "uint256[]",
          "name": "",
          "type": "uint256[]"
        }
      ],
      "payable": false,
      "stateMutability": "view",
      "type": "function"
    },
    {
      "constant": false,
      "inputs": [],
      "name": "kill",
      "outputs": [],
      "payable": false,
      "stateMutability": "nonpayable",
      "type": "function"
    }
  ],
  "bytecode": "0x60806040526040518060400160405280600581526020017f302e302e310000000000000000000000000000000000000000000000000000008152506007908051906020019062000051929190620000ff565b503480156200005f57600080fd5b5033600660006101000a81548173ffffffffffffffffffffffffffffffffffffffff021916908373ffffffffffffffffffffffffffffffffffffffff1602179055506001600260003373ffffffffffffffffffffffffffffffffffffffff1673ffffffffffffffffffffffffffffffffffffffff16815260200190815260200160002060006101000a81548160ff021916908315150217905550620001ae565b828054600181600116156101000203166002900490600052602060002090601f016020900481019282601f106200014257805160ff191683800117855562000173565b8280016001018555821562000173579182015b828111156200017257825182559160200191906001019062000155565b5b50905062000182919062000186565b5090565b620001ab91905b80821115620001a75760008160009055506001016200018d565b5090565b90565b61286180620001be6000396000f3fe6080604052600436106101145760003560e01c806363fe51a9116100a0578063d22a225511610064578063d22a225514610c24578063e1d1721814610dc2578063f4fe9fad14610e68578063f7b2b0ca14610ed1578063fdf382381461117557610114565b806363fe51a9146108055780638da5cb5b146108e4578063925755ff1461093b5780639cdf8e8214610b31578063c96e830414610b5c57610114565b80633b92f3df116100e75780633b92f3df1461068357806341c0e1b5146106c75780634c32abbf146106de57806354fd4d50146107095780635e9881161461079957610114565b80630869cfbc1461011957806312dc9013146103185780632018ff151461042257806321ad6c3a14610473575b600080fd5b34801561012557600080fd5b506101686004803603602081101561013c57600080fd5b81019080803573ffffffffffffffffffffffffffffffffffffffff169060200190929190505050611254565b604051808773ffffffffffffffffffffffffffffffffffffffff1673ffffffffffffffffffffffffffffffffffffffff16815260200180602001806020018660018111156101b257fe5b60ff1681526020018560058111156101c657fe5b60ff16815260200180602001848103845289818151815260200191508051906020019080838360005b8381101561020a5780820151818401526020810190506101ef565b50505050905090810190601f1680156102375780820380516001836020036101000a031916815260200191505b50848103835288818151815260200191508051906020019080838360005b83811015610270578082015181840152602081019050610255565b50505050905090810190601f16801561029d5780820380516001836020036101000a031916815260200191505b50848103825285818151815260200191508051906020019080838360005b838110156102d65780820151818401526020810190506102bb565b50505050905090810190601f1680156103035780820380516001836020036101000a031916815260200191505b50995050505050505050505060405180910390f35b34801561032457600080fd5b506103516004803603602081101561033b57600080fd5b8101908080359060200190929190505050611492565b604051808681526020018573ffffffffffffffffffffffffffffffffffffffff1673ffffffffffffffffffffffffffffffffffffffff16815260200184815260200183600481111561039f57fe5b60ff16815260200180602001828103825283818151815260200191508051906020019080838360005b838110156103e35780820151818401526020810190506103c8565b50505050905090810190601f1680156104105780820380516001836020036101000a031916815260200191505b50965050505050505060405180910390f35b34801561042e57600080fd5b506104716004803603602081101561044557600080fd5b81019080803573ffffffffffffffffffffffffffffffffffffffff16906020019092919050505061158d565b005b34801561047f57600080fd5b50610681600480360360a081101561049657600080fd5b81019080803590602001906401000000008111156104b357600080fd5b8201836020820111156104c557600080fd5b803590602001918460018302840111640100000000831117156104e757600080fd5b91908080601f016020809104026020016040519081016040528093929190818152602001838380828437600081840152601f19601f8201169050808301925050505050505091929192908035906020019064010000000081111561054a57600080fd5b82018360208201111561055c57600080fd5b8035906020019184600183028401116401000000008311171561057e57600080fd5b91908080601f016020809104026020016040519081016040528093929190818152602001838380828437600081840152601f19601f820116905080830192505050505050509192919290803560ff169060200190929190803560ff169060200190929190803590602001906401000000008111156105fb57600080fd5b82018360208201111561060d57600080fd5b8035906020019184600183028401116401000000008311171561062f57600080fd5b91908080601f016020809104026020016040519081016040528093929190818152602001838380828437600081840152601f19601f820116905080830192505050505050509192919290505050611699565b005b6106c56004803603602081101561069957600080fd5b81019080803573ffffffffffffffffffffffffffffffffffffffff1690602001909291905050506118ff565b005b3480156106d357600080fd5b506106dc611949565b005b3480156106ea57600080fd5b506106f36119bc565b6040518082815260200191505060405180910390f35b34801561071557600080fd5b5061071e6119c2565b6040518080602001828103825283818151815260200191508051906020019080838360005b8381101561075e578082015181840152602081019050610743565b50505050905090810190601f16801561078b5780820380516001836020036101000a031916815260200191505b509250505060405180910390f35b3480156107a557600080fd5b506107ae611a60565b6040518080602001828103825283818151815260200191508051906020019060200280838360005b838110156107f15780820151818401526020810190506107d6565b505050509050019250505060405180910390f35b34801561081157600080fd5b506108e26004803603606081101561082857600080fd5b8101908080359060200190929190803560ff1690602001909291908035906020019064010000000081111561085c57600080fd5b82018360208201111561086e57600080fd5b8035906020019184600183028401116401000000008311171561089057600080fd5b91908080601f016020809104026020016040519081016040528093929190818152602001838380828437600081840152601f19601f820116905080830192505050505050509192919290505050611b16565b005b3480156108f057600080fd5b506108f9611d3b565b604051808273ffffffffffffffffffffffffffffffffffffffff1673ffffffffffffffffffffffffffffffffffffffff16815260200191505060405180910390f35b34801561094757600080fd5b50610b2f6004803603606081101561095e57600080fd5b810190808035906020019064010000000081111561097b57600080fd5b82018360208201111561098d57600080fd5b803590602001918460018302840111640100000000831117156109af57600080fd5b91908080601f016020809104026020016040519081016040528093929190818152602001838380828437600081840152601f19601f82011690508083019250505050505050919291929080359060200190640100000000811115610a1257600080fd5b820183602082011115610a2457600080fd5b80359060200191846001830284011164010000000083111715610a4657600080fd5b91908080601f016020809104026020016040519081016040528093929190818152602001838380828437600081840152601f19601f82011690508083019250505050505050919291929080359060200190640100000000811115610aa957600080fd5b820183602082011115610abb57600080fd5b80359060200191846001830284011164010000000083111715610add57600080fd5b91908080601f016020809104026020016040519081016040528093929190818152602001838380828437600081840152601f19601f820116905080830192505050505050509192919290505050611d61565b005b348015610b3d57600080fd5b50610b46611fac565b6040518082815260200191505060405180910390f35b348015610b6857600080fd5b50610c2260048036036020811015610b7f57600080fd5b8101908080359060200190640100000000811115610b9c57600080fd5b820183602082011115610bae57600080fd5b80359060200191846001830284011164010000000083111715610bd057600080fd5b91908080601f016020809104026020016040519081016040528093929190818152602001838380828437600081840152601f19601f820116905080830192505050505050509192919290505050611fb2565b005b348015610c3057600080fd5b50610c5d60048036036020811015610c4757600080fd5b8101908080359060200190929190505050611fcc565b6040518080602001806020018060200186151515158152602001858152602001848103845289818151815260200191508051906020019080838360005b83811015610cb5578082015181840152602081019050610c9a565b50505050905090810190601f168015610ce25780820380516001836020036101000a031916815260200191505b50848103835288818151815260200191508051906020019080838360005b83811015610d1b578082015181840152602081019050610d00565b50505050905090810190601f168015610d485780820380516001836020036101000a031916815260200191505b50848103825287818151815260200191508051906020019080838360005b83811015610d81578082015181840152602081019050610d66565b50505050905090810190601f168015610dae5780820380516001836020036101000a031916815260200191505b509850505050505050505060405180910390f35b348015610dce57600080fd5b50610e1160048036036020811015610de557600080fd5b81019080803573ffffffffffffffffffffffffffffffffffffffff1690602001909291905050506121d7565b6040518080602001828103825283818151815260200191508051906020019060200280838360005b83811015610e54578082015181840152602081019050610e39565b505050509050019250505060405180910390f35b348015610e7457600080fd5b50610eb760048036036020811015610e8b57600080fd5b81019080803573ffffffffffffffffffffffffffffffffffffffff169060200190929190505050612270565b604051808215151515815260200191505060405180910390f35b348015610edd57600080fd5b50611173600480360360c0811015610ef457600080fd5b8101908080359060200190640100000000811115610f1157600080fd5b820183602082011115610f2357600080fd5b80359060200191846001830284011164010000000083111715610f4557600080fd5b91908080601f016020809104026020016040519081016040528093929190818152602001838380828437600081840152601f19601f82011690508083019250505050505050919291929080359060200190640100000000811115610fa857600080fd5b820183602082011115610fba57600080fd5b80359060200191846001830284011164010000000083111715610fdc57600080fd5b91908080601f016020809104026020016040519081016040528093929190818152602001838380828437600081840152601f19601f820116905080830192505050505050509192919290803560ff169060200190929190803560ff1690602001909291908035906020019064010000000081111561105957600080fd5b82018360208201111561106b57600080fd5b8035906020019184600183028401116401000000008311171561108d57600080fd5b91908080601f016020809104026020016040519081016040528093929190818152602001838380828437600081840152601f19601f820116905080830192505050505050509192919290803590602001906401000000008111156110f057600080fd5b82018360208201111561110257600080fd5b8035906020019184602083028401116401000000008311171561112457600080fd5b919080806020026020016040519081016040528093929190818152602001838360200280828437600081840152601f19601f820116905080830192505050505050509192919290505050612290565b005b34801561118157600080fd5b506112526004803603606081101561119857600080fd5b8101908080359060200190929190803560ff169060200190929190803590602001906401000000008111156111cc57600080fd5b8201836020820111156111de57600080fd5b8035906020019184600183028401116401000000008311171561120057600080fd5b91908080601f016020809104026020016040519081016040528093929190818152602001838380828437600081840152601f19601f8201169050808301925050505050505091929192905050506124df565b005b60006020528060005260406000206000915090508060000160009054906101000a900473ffffffffffffffffffffffffffffffffffffffff1690806001018054600181600116156101000203166002900480601f0160208091040260200160405190810160405280929190818152602001828054600181600116156101000203166002900480156113265780601f106112fb57610100808354040283529160200191611326565b820191906000526020600020905b81548152906001019060200180831161130957829003601f168201915b505050505090806002018054600181600116156101000203166002900480601f0160208091040260200160405190810160405280929190818152602001828054600181600116156101000203166002900480156113c45780601f10611399576101008083540402835291602001916113c4565b820191906000526020600020905b8154815290600101906020018083116113a757829003601f168201915b5050505050908060030160009054906101000a900460ff16908060030160019054906101000a900460ff1690806004018054600181600116156101000203166002900480601f0160208091040260200160405190810160405280929190818152602001828054600181600116156101000203166002900480156114885780601f1061145d57610100808354040283529160200191611488565b820191906000526020600020905b81548152906001019060200180831161146b57829003601f168201915b5050505050905086565b60016020528060005260406000206000915090508060000154908060010160009054906101000a900473ffffffffffffffffffffffffffffffffffffffff16908060020154908060030160009054906101000a900460ff1690806004018054600181600116156101000203166002900480601f0160208091040260200160405190810160405280929190818152602001828054600181600116156101000203166002900480156115835780601f1061155857610100808354040283529160200191611583565b820191906000526020600020905b81548152906001019060200180831161156657829003601f168201915b5050505050905085565b600660009054906101000a900473ffffffffffffffffffffffffffffffffffffffff1673ffffffffffffffffffffffffffffffffffffffff163373ffffffffffffffffffffffffffffffffffffffff16146115e757600080fd5b600260008273ffffffffffffffffffffffffffffffffffffffff1673ffffffffffffffffffffffffffffffffffffffff16815260200190815260200160002060009054906101000a900460ff161561163e57600080fd5b6001600260008373ffffffffffffffffffffffffffffffffffffffff1673ffffffffffffffffffffffffffffffffffffffff16815260200190815260200160002060006101000a81548160ff02191690831515021790555050565b6000803373ffffffffffffffffffffffffffffffffffffffff1673ffffffffffffffffffffffffffffffffffffffff16815260200190815260200160002060000160009054906101000a900473ffffffffffffffffffffffffffffffffffffffff1673ffffffffffffffffffffffffffffffffffffffff163373ffffffffffffffffffffffffffffffffffffffff161461173257600080fd5b846000803373ffffffffffffffffffffffffffffffffffffffff1673ffffffffffffffffffffffffffffffffffffffff16815260200190815260200160002060010190805190602001906117879291906126ba565b50836000803373ffffffffffffffffffffffffffffffffffffffff1673ffffffffffffffffffffffffffffffffffffffff16815260200190815260200160002060020190805190602001906117dd9291906126ba565b50826000803373ffffffffffffffffffffffffffffffffffffffff1673ffffffffffffffffffffffffffffffffffffffff16815260200190815260200160002060030160006101000a81548160ff0219169083600181111561183b57fe5b0217905550816000803373ffffffffffffffffffffffffffffffffffffffff1673ffffffffffffffffffffffffffffffffffffffff16815260200190815260200160002060030160016101000a81548160ff0219169083600581111561189d57fe5b0217905550806000803373ffffffffffffffffffffffffffffffffffffffff1673ffffffffffffffffffffffffffffffffffffffff16815260200190815260200160002060040190805190602001906118f79291906126ba565b505050505050565b8073ffffffffffffffffffffffffffffffffffffffff166108fc349081150290604051600060405180830381858888f19350505050158015611945573d6000803e3d6000fd5b5050565b600660009054906101000a900473ffffffffffffffffffffffffffffffffffffffff1673ffffffffffffffffffffffffffffffffffffffff163373ffffffffffffffffffffffffffffffffffffffff16146119a357600080fd5b3373ffffffffffffffffffffffffffffffffffffffff16ff5b60055481565b60078054600181600116156101000203166002900480601f016020809104026020016040519081016040528092919081815260200182805460018160011615610100020316600290048015611a585780601f10611a2d57610100808354040283529160200191611a58565b820191906000526020600020905b815481529060010190602001808311611a3b57829003601f168201915b505050505081565b606080600080600190505b6004548111611b0d573373ffffffffffffffffffffffffffffffffffffffff166001600083815260200190815260200160002060010160009054906101000a900473ffffffffffffffffffffffffffffffffffffffff1673ffffffffffffffffffffffffffffffffffffffff161415611b005780838381518110611aeb57fe5b60200260200101818152505081806001019250505b8080600101915050611a6b565b50819250505090565b6000803373ffffffffffffffffffffffffffffffffffffffff1673ffffffffffffffffffffffffffffffffffffffff16815260200190815260200160002060000160009054906101000a900473ffffffffffffffffffffffffffffffffffffffff1673ffffffffffffffffffffffffffffffffffffffff163373ffffffffffffffffffffffffffffffffffffffff1614611baf57600080fd5b428311611bbb57600080fd5b6004600081548092919060010191905055506040518060a0016040528060045481526020013373ffffffffffffffffffffffffffffffffffffffff168152602001848152602001836004811115611c0e57fe5b8152602001828152506001600060045481526020019081526020016000206000820151816000015560208201518160010160006101000a81548173ffffffffffffffffffffffffffffffffffffffff021916908373ffffffffffffffffffffffffffffffffffffffff1602179055506040820151816002015560608201518160030160006101000a81548160ff02191690836004811115611cab57fe5b02179055506080820151816004019080519060200190611ccc92919061273a565b509050506004547f11bc75e1c881a356fd788845fca53e42abfc6d0fcf1f28e90fc6b518d4163e1733604051808273ffffffffffffffffffffffffffffffffffffffff1673ffffffffffffffffffffffffffffffffffffffff16815260200191505060405180910390a2505050565b600660009054906101000a900473ffffffffffffffffffffffffffffffffffffffff1681565b6000803373ffffffffffffffffffffffffffffffffffffffff1673ffffffffffffffffffffffffffffffffffffffff16815260200190815260200160002060000160009054906101000a900473ffffffffffffffffffffffffffffffffffffffff1673ffffffffffffffffffffffffffffffffffffffff163373ffffffffffffffffffffffffffffffffffffffff1614611e63576040517f08c379a000000000000000000000000000000000000000000000000000000000815260040180806020018281038252601a8152602001807f53656e6465722068617320746f20626520612070617469656e7400000000000081525060200191505060405180910390fd5b6005600081548092919060010191905055506040518060a001604052808481526020018381526020018281526020016001151581526020016005548152506003600060055481526020019081526020016000206000820151816000019080519060200190611ed292919061273a565b506020820151816001019080519060200190611eef92919061273a565b506040820151816002019080519060200190611f0c92919061273a565b5060608201518160030160006101000a81548160ff021916908315150217905550608082015181600401559050506000803373ffffffffffffffffffffffffffffffffffffffff1673ffffffffffffffffffffffffffffffffffffffff1681526020019081526020016000206005016005549080600181540180825580915050906001820390600052602060002001600090919290919091505550505050565b60045481565b8060079080519060200190611fc89291906126ba565b5050565b6003602052806000526040600020600091509050806000018054600181600116156101000203166002900480601f0160208091040260200160405190810160405280929190818152602001828054600181600116156101000203166002900480156120785780601f1061204d57610100808354040283529160200191612078565b820191906000526020600020905b81548152906001019060200180831161205b57829003601f168201915b505050505090806001018054600181600116156101000203166002900480601f0160208091040260200160405190810160405280929190818152602001828054600181600116156101000203166002900480156121165780601f106120eb57610100808354040283529160200191612116565b820191906000526020600020905b8154815290600101906020018083116120f957829003601f168201915b505050505090806002018054600181600116156101000203166002900480601f0160208091040260200160405190810160405280929190818152602001828054600181600116156101000203166002900480156121b45780601f10612189576101008083540402835291602001916121b4565b820191906000526020600020905b81548152906001019060200180831161219757829003601f168201915b5050505050908060030160009054906101000a900460ff16908060040154905085565b60606000808373ffffffffffffffffffffffffffffffffffffffff1673ffffffffffffffffffffffffffffffffffffffff16815260200190815260200160002060050180548060200260200160405190810160405280929190818152602001828054801561226457602002820191906000526020600020905b815481526020019060010190808311612250575b50505050509050919050565b60026020528060005260406000206000915054906101000a900460ff1681565b6000803373ffffffffffffffffffffffffffffffffffffffff1673ffffffffffffffffffffffffffffffffffffffff16815260200190815260200160002060000160009054906101000a900473ffffffffffffffffffffffffffffffffffffffff1673ffffffffffffffffffffffffffffffffffffffff163373ffffffffffffffffffffffffffffffffffffffff16141561232a57600080fd5b6040518060e001604052803373ffffffffffffffffffffffffffffffffffffffff16815260200187815260200186815260200185600181111561236957fe5b815260200184600581111561237a57fe5b8152602001838152602001828152506000803373ffffffffffffffffffffffffffffffffffffffff1673ffffffffffffffffffffffffffffffffffffffff16815260200190815260200160002060008201518160000160006101000a81548173ffffffffffffffffffffffffffffffffffffffff021916908373ffffffffffffffffffffffffffffffffffffffff160217905550602082015181600101908051906020019061242a92919061273a565b50604082015181600201908051906020019061244792919061273a565b5060608201518160030160006101000a81548160ff0219169083600181111561246c57fe5b021790555060808201518160030160016101000a81548160ff0219169083600581111561249557fe5b021790555060a08201518160040190805190602001906124b692919061273a565b5060c08201518160050190805190602001906124d39291906127ba565b50905050505050505050565b60011515600260003373ffffffffffffffffffffffffffffffffffffffff1673ffffffffffffffffffffffffffffffffffffffff16815260200190815260200160002060009054906101000a900460ff16151514806125ca57506000803373ffffffffffffffffffffffffffffffffffffffff1673ffffffffffffffffffffffffffffffffffffffff16815260200190815260200160002060000160009054906101000a900473ffffffffffffffffffffffffffffffffffffffff1673ffffffffffffffffffffffffffffffffffffffff163373ffffffffffffffffffffffffffffffffffffffff16145b6125d357600080fd5b600083116125e057600080fd5b6004548311156125ef57600080fd5b816001600085815260200190815260200160002060030160006101000a81548160ff0219169083600481111561262157fe5b0217905550806001600085815260200190815260200160002060040190805190602001906126509291906126ba565b50827faed36e024505e25c12abbd5805f9a03e43edc723e22f4f50bb4f14a6e9ef1ada33604051808273ffffffffffffffffffffffffffffffffffffffff1673ffffffffffffffffffffffffffffffffffffffff16815260200191505060405180910390a2505050565b828054600181600116156101000203166002900490600052602060002090601f016020900481019282601f106126fb57805160ff1916838001178555612729565b82800160010185558215612729579182015b8281111561272857825182559160200191906001019061270d565b5b5090506127369190612807565b5090565b828054600181600116156101000203166002900490600052602060002090601f016020900481019282601f1061277b57805160ff19168380011785556127a9565b828001600101855582156127a9579182015b828111156127a857825182559160200191906001019061278d565b5b5090506127b69190612807565b5090565b8280548282559060005260206000209081019282156127f6579160200282015b828111156127f55782518255916020019190600101906127da565b5b5090506128039190612807565b5090565b61282991905b8082111561282557600081600090555060010161280d565b5090565b9056fea265627a7a723158206a499ce8380589c29a735ce58d320f353a6a1f7aefb7b990995c2b9e7ad270be64736f6c63430005100032",
  "source": "//SPDX-License-Identifier:MIT\r\npragma solidity >=0.5.16<0.8.0;\r\ncontract EMRContract {\r\n\r\n  enum SexType { MALE, FEMALE }\r\n  enum MaritalType { single, married, remarried, separated, divorced, widowed }\r\n  enum AppointmentStat { CREATED, APPROVED, REJECTED, BILLING, CLOSE }\r\n\r\n  struct Patient {\r\n    address client;\r\n    string fullname;\r\n    string dob;\r\n    SexType sex;\r\n    MaritalType marital;\r\n    string email;\r\n    uint256[] medicalreport;\r\n  }\r\n\r\n  struct Appointment{\r\n    uint256 index;\r\n    address patient;\r\n    uint256 datetime;\r\n    AppointmentStat stat;\r\n    string remark;\r\n  }\r\n\r\n  struct MedicalReport{\r\n    string docname;\r\n    string docpath;\r\n    string docdesp;\r\n    bool isActive;\r\n    uint256 index;\r\n  }\r\n  \r\n  mapping(address => Patient) public patients;\r\n\r\n  mapping(uint256 => Appointment) public appointments;\r\n  mapping(address => bool) public administrator;\r\n\r\n  mapping(uint256 => MedicalReport) public medicalreports;\r\n\r\n  uint256 public AppointmentIndex;\r\n  uint256 public MedicalReportIndex;\r\n\r\n  address public owner;\r\n  \r\n  \r\n  string public version = \"0.0.1\";\r\n\r\n  event eAppointmentAdd(uint256 indexed index, address sender);\r\n\r\n  event eAppointmentUpdate(uint256 indexed index, address sender);\r\n\r\n\r\n  modifier isOwner() {\r\n    if (msg.sender == owner) _;\r\n  }\r\n\r\n  modifier isAdministrator(address _admin) {\r\n    if (administrator[_admin] == true) _;\r\n  }\r\n\r\n  constructor() public {\r\n    owner = msg.sender;\r\n    administrator[msg.sender] = true;\r\n  }\r\n\r\n  function UpdateVersion (string memory _version) public {\r\n    version = _version;\r\n  }\r\n\r\n  function SetAdministrator (address _admin) public {\r\n    require(msg.sender == owner);\r\n    require(!administrator[_admin]);\r\n\r\n    administrator[_admin] = true;\r\n  }\r\n\r\n  /*\r\n  * Sign Up Patients\r\n  */\r\n\r\n  function SignupPatient(string memory _fullname,\r\n      string memory _dob,\r\n      SexType _sex,\r\n      MaritalType _marital,\r\n      string memory _email,\r\n      uint256[] memory _medicalreport) public {\r\n\r\n    require(msg.sender != patients[msg.sender].client);\r\n\r\n    patients[msg.sender] = Patient(msg.sender, \r\n      _fullname, \r\n      _dob, \r\n      _sex, \r\n      _marital, \r\n      _email, \r\n      _medicalreport);\r\n\r\n  }\r\n\r\n\r\n  function PatientUpdate(string memory _fullname,\r\n      string memory _dob,\r\n      SexType _sex,\r\n      MaritalType _marital,\r\n      string memory _email) public {\r\n\r\n    require(msg.sender == patients[msg.sender].client);\r\n\r\n    patients[msg.sender].fullname = _fullname;\r\n    patients[msg.sender].dob = _dob;\r\n    patients[msg.sender].sex = _sex;\r\n    patients[msg.sender].marital = _marital;\r\n    patients[msg.sender].email = _email;\r\n\r\n  }\r\n\r\n  \r\n  function AppointmentAdd(uint256 _datetime, \r\n    AppointmentStat _stat, string memory _remark) public {\r\n    \r\n    require(msg.sender == patients[msg.sender].client);\r\n    require(_datetime > block.timestamp);\r\n    \r\n    AppointmentIndex++;\r\n\r\n    appointments[AppointmentIndex] = Appointment(AppointmentIndex,\r\n      msg.sender,\r\n      _datetime,\r\n      _stat,\r\n      _remark);\r\n\r\n    emit eAppointmentAdd(AppointmentIndex, msg.sender);\r\n\r\n  }\r\n\r\n  function AppointmentUpdate(uint256 _AppointmentIndex, \r\n    AppointmentStat _stat, \r\n    string memory _remark) public {\r\n\r\n    require(administrator[msg.sender] == true || msg.sender == patients[msg.sender].client);\r\n    require(_AppointmentIndex > 0);\r\n    require(_AppointmentIndex <= AppointmentIndex);\r\n\r\n    appointments[_AppointmentIndex].stat = _stat;\r\n    appointments[_AppointmentIndex].remark = _remark;\r\n\r\n    emit eAppointmentUpdate(_AppointmentIndex, msg.sender);\r\n\r\n  }\r\n\r\n  function AppointmentGet() public view returns (uint256[] memory){\r\n    uint256[] memory results;\r\n    uint256 count;\r\n    for (uint256 i = 1; i <= AppointmentIndex; i++) {\r\n        if(appointments[i].patient == msg.sender)\r\n        {\r\n          //results.push(appointments[i].index);\r\n          results[count] = i;\r\n          count++;\r\n        }\r\n    }\r\n    return results;\r\n  }\r\n\r\n  function payment(address payable _receiver) public payable {\r\n     _receiver.transfer(msg.value);\r\n  }\r\n\r\n  function MedicalReportAdd(string memory _docname,\r\n    string memory _docpath,\r\n    string memory _docdesp) public {\r\n\r\n      require(msg.sender == patients[msg.sender].client, \"Sender has to be a patient\");\r\n\r\n      MedicalReportIndex++;\r\n      medicalreports[MedicalReportIndex] = MedicalReport(_docname, \r\n        _docpath, \r\n        _docdesp, \r\n        true, MedicalReportIndex);\r\n\r\n      patients[msg.sender].medicalreport.push(MedicalReportIndex);\r\n\r\n  }\r\n\r\n  function MedicalReportGet(address _addr) public view returns(uint256[] memory){\r\n    return patients[_addr].medicalreport;\r\n  }\r\n\r\n \r\n\r\n  function kill() public {\r\n    require(msg.sender == owner);\r\n    selfdestruct(msg.sender);\r\n  }\r\n\r\n\r\n\r\n\r\n}",
  "sourcePath": "C:/Users/sanus/final-major-project/contracts/EMRContract.sol",
  "compiler": {
    "name": "solc",
    "version": "0.5.16+commit.9c3226ce.Emscripten.clang"
  },
  "schemaVersion": "3.3.4",
  "updatedAt": "2021-03-06T14:06:26.691Z",
  "networkType": "ethereum",
  "devdoc": {
    "methods": {}
  },
  "userdoc": {
    "methods": {}
  }
}