{
  "contractName": "EMRContract",
  "abi": [
    {
      "constant": true,
      "inputs": [
        {
          "internalType": "address",
          "name": "",
          "type": "address"
        }
      ],
      "name": "patients",
      "outputs": [
        {
          "internalType": "address",
          "name": "client",
          "type": "address"
        },
        {
          "internalType": "string",
          "name": "fullname",
          "type": "string"
        },
        {
          "internalType": "string",
          "name": "dob",
          "type": "string"
        },
        {
          "internalType": "enum EMRContract.SexType",
          "name": "sex",
          "type": "uint8"
        },
        {
          "internalType": "enum EMRContract.MaritalType",
          "name": "marital",
          "type": "uint8"
        },
        {
          "internalType": "string",
          "name": "email",
          "type": "string"
        }
      ],
      "payable": false,
      "stateMutability": "view",
      "type": "function"
    }
  ],
  "bytecode": "0x608060405234801561001057600080fd5b50610495806100206000396000f3fe608060405234801561001057600080fd5b506004361061002b5760003560e01c80630869cfbc14610030575b600080fd5b6100726004803603602081101561004657600080fd5b81019080803573ffffffffffffffffffffffffffffffffffffffff169060200190929190505050610222565b604051808773ffffffffffffffffffffffffffffffffffffffff1673ffffffffffffffffffffffffffffffffffffffff16815260200180602001806020018660018111156100bc57fe5b60ff1681526020018560058111156100d057fe5b60ff16815260200180602001848103845289818151815260200191508051906020019080838360005b838110156101145780820151818401526020810190506100f9565b50505050905090810190601f1680156101415780820380516001836020036101000a031916815260200191505b50848103835288818151815260200191508051906020019080838360005b8381101561017a57808201518184015260208101905061015f565b50505050905090810190601f1680156101a75780820380516001836020036101000a031916815260200191505b50848103825285818151815260200191508051906020019080838360005b838110156101e05780820151818401526020810190506101c5565b50505050905090810190601f16801561020d5780820380516001836020036101000a031916815260200191505b50995050505050505050505060405180910390f35b60006020528060005260406000206000915090508060000160009054906101000a900473ffffffffffffffffffffffffffffffffffffffff1690806001018054600181600116156101000203166002900480601f0160208091040260200160405190810160405280929190818152602001828054600181600116156101000203166002900480156102f45780601f106102c9576101008083540402835291602001916102f4565b820191906000526020600020905b8154815290600101906020018083116102d757829003601f168201915b505050505090806002018054600181600116156101000203166002900480601f0160208091040260200160405190810160405280929190818152602001828054600181600116156101000203166002900480156103925780601f1061036757610100808354040283529160200191610392565b820191906000526020600020905b81548152906001019060200180831161037557829003601f168201915b5050505050908060030160009054906101000a900460ff16908060030160019054906101000a900460ff1690806004018054600181600116156101000203166002900480601f0160208091040260200160405190810160405280929190818152602001828054600181600116156101000203166002900480156104565780601f1061042b57610100808354040283529160200191610456565b820191906000526020600020905b81548152906001019060200180831161043957829003601f168201915b505050505090508656fea265627a7a723158201ea28daba085c85231e82ea9069de6ea7c99e2493df2513f1588af7ca6c4d1de64736f6c63430005100032",
  "source": "//SPDX-License-Identifier:MIT\r\npragma solidity >=0.5.16<0.8.0;\r\ncontract EMRContract {\r\n\r\n  enum SexType { MALE, FEMALE }\r\n  enum MaritalType { single, married, remarried, separated, divorced, widowed }\r\n\r\n  struct Patient {\r\n    address client;\r\n    string fullname;\r\n    string dob;\r\n    SexType sex;\r\n    MaritalType marital;\r\n    string email;\r\n    uint256[] medicalreport;\r\n  }\r\nmapping(address => Patient) public patients;\r\n\r\n\r\n}",
  "sourcePath": "C:/Users/sanus/final-major-project/contracts/EMRContract.sol",
  "compiler": {
    "name": "solc",
    "version": "0.5.16+commit.9c3226ce.Emscripten.clang"
  },
  "schemaVersion": "3.3.4",
  "updatedAt": "2021-02-28T10:13:46.091Z",
  "networkType": "ethereum",
  "devdoc": {
    "methods": {}
  },
  "userdoc": {
    "methods": {}
  }
}